:020000040800F2
:100000000028002091020008E1020008E102000837
:10001000E1020008E1020008E1020008000000001F
:10002000000000000000000000000000E1020008E5
:10003000E102000800000000E1020008E1020008FF
:10004000E1020008E1020008E1020008E102000804
:10005000E1020008E1020008E1020008E1020008F4
:10006000E1020008E1020008E1020008E1020008E4
:10007000E1020008E1020008E1020008E1020008D4
:10008000E1020008E1020008E1020008E1020008C4
:10009000E1020008E1020008E1020008E1020008B4
:1000A000E1020008E1020008E1020008E1020008A4
:1000B000E1020008E1020008E1020008E102000894
:1000C000E1020008E1020008E1020008E102000884
:1000D000E1020008E1020008E1020008E102000874
:1000E000E1020008E102000800000000E10200084F
:1000F000E1020008E1020008E1020008E102000854
:10010000E1020008E1020008E1020008E102000843
:10011000E1020008E1020008E1020008E102000833
:10012000E1020008E1020008E1020008E102000823
:1001300010B5054C237833B9044B13B10448AFF321
:1001400000800123237010BD00000020000000008B
:100150002C03000808B5034B1BB103490348AFF358
:10016000008008BD00000000040000202C030008EF
:1001700080B483B000AF00237B6002E07B68013372
:100180007B607B684CF24F329342F7DD00BF0C3747
:10019000BD4680BC7047000080B500AF354B1B6882
:1001A000344A43F004031360324B1B68314A43F076
:1001B00008031360304B00221A60304B00221A6093
:1001C0002F4B00221A602F4B00221A602A4B1B680B
:1001D000294A23F440131360274B1B68264A43F433
:1001E00080031360264B1B68254A43F48013136079
:1001F000234B1B68224A23F4400313601F4B1B68E8
:100200001E4A23F0300313601C4B1B681B4A43F04B
:10021000400313601B4B1B681A4A43F01003136022
:10022000184B1B68174A23F0C0031360164B1B685A
:1002300003F00203002B0CD1144B1B68134A83F00C
:100240000203136000BF104B1B6803F00203002B76
:10025000F9D00D4B1B685B0B03F00103012B05D19B
:100260000A4B1B68094A83F400531360FFF780FFB1
:10027000DCE700BF181002400408014000080140FC
:10028000040C0140000C0140080801400C0C014026
:100290000D488546AFF300800C480D490D4A0023F8
:1002A00002E0D458C4500433C4188C42F9D30A4A2B
:1002B0000A4C002301E013600432A242FBD300F099
:1002C00011F8FFF769FFFEE700280020000000207A
:1002D000000000204C030008000000201C0000204B
:1002E000FEE7000070B500250C4E0D4CA41BA410B9
:1002F000A54209D100F01AF800250A4E0A4CA41BA9
:10030000A410A54205D170BD56F825309847013597
:10031000EEE756F8253098470135F2E74403000828
:10032000440300084403000848030008F8B500BF70
:10033000F8BC08BC9E467047F8B500BFF8BC08BCC6
:040340009E4670471E
:040344005501000857
:040348003101000877
:04000005080002915C
:00000001FF
